S0090000626174746C657A
S11320008E3039BD23E8BD2324BD20268601B73098
S113201002CE4048BD2285BD2340BD206025E7BDDA
S1132020000025E220F136373C183CCE303AC62475
S1132030A60084C08A03A700085A26F4CE305EC6E0
S113204024A60084C08A03A700085A26F4CE5F00A1
S1132050C6248603A700085A26F8183838333239BC
S113206036373C183C810F2607BD209C25282025A7
S113207081032605BD0035201C81072605BD0035DA
S11320802013F63003C101270C810B2605BD21174F
S11320902003BD20C90C18383833323936373C1880
S11320A03CCE4066BD2285BD2340810F26030D2012
S11320B012B63002C6301BC603BD23E17F30007F59
S11320C030010C18383833323936373C183C810625
S11320D02221F63000263A81022208C60A1BB730B4
S11320E0002006C6091BB73000C6371BC601BD2336
S11320F0E1201EF630012619810A2208C60710B70E
S113210030012006C60810B73001C6301B5FBD235E
S1132110E118383833323936373C183CB63002814E
S1132120012705CE303A2003CE305E3CB63000C6DF
S11321300A10C6063D3AF630015A3AA600843F8199
S1132140032663A60084C027548140273B81C0270F
S113215007BD21F024272030F63002C10127107C6E
S11321603007B630078104271AA60084C0200E7CED
S11321703006B630068104270AA60084C08A3CA72C
S1132180002023BD21C020048A30A700B63002817C
S11321900127057C3005200E7C300420098A0CA719
S11321A0008601B7300396205FBD23E15CBD23E1C7
S11321B07F30007F300138BD22EB18383833323994
S11321C036373C183CF63002C1012705CE303A20A0
S11321D003CE305EC604A60084C081C026098A30BE
S11321E0A7005AC10027030820EC183838333239C5
S11321F036373C183C3CB63000F630015CBD2264F6
S1132200250708A60081BC2749383CB63000F630C3
S1132210015ABD2264250709A60081BC2734383C35
S1132220B630004AF63001BD2264250B8F830006C8
S11322308FA60081BC271B383CB630004CF6300119
S1132240BD22642517C6063AA60081BC2704380CB3
S1132250200C84C08A30A700380D2002380C1838AE
S11322603833323936373C183C810A2B0E810F2221
S11322700AC1012B06C106220220030D20010C18FD
S1132280383833323936373C183C3C18388F8300A1
S1132290038F8604BD2307183CBD22B4183008CD33
S11322A0AC0018382BECA6008100270220E4183873
S11322B03833323936373C183C1830BD22DAC6037D
S11322C0CDAC082B09A60081002709BD23E1085ADB
S11322D02B0220EC18383833323936378620C603BF
S10E22E0BD23E15A2B0220F8333239F1
S113308247414E41444F5220504C41594552203100
S11330920047414E41444F5220504C415945522021
S10530A23200F6
S113303A0040008000000000008000000000000042
S113304A004000C0C0C0C0004000000000000000F2
S107305A808000006E
S113305EC00000004000C00000000000C00000409E
S113306E0080C0000000008000000000000080808E
S107307E000000400A
S11322EB36373C183C18CE5F00C624A60018A7004E
S11322FB0818085A26F51838383332393C183C3646
S113230B37861218CED90001180926FB4A26F41871
S113231BCE00123332183838397F30007F30017FCA
S113232B30027F30037F30067F30077F30047F30ED
S108233B05BD23D239A9
S1045EFF009E
S113234037860EB71003C600BD23792427860DB740
S11323501003C601BD2379241B860BB71003C602E4
S1132360BD2379240F8607B71003C603BD23792440
S1132370030D2001173325C8393686043DB61003F2
S113238084F081F0272F81E026048600201481D078
S113239026048601200C81B02604860220048603CC
S11323A020001B16B61003B71003B6100384F08187
S11323B0F026F720010D3239183C3637C6045A1876
S11323C0A600F71005B7100418085D26F13332187B
S11323D038393637C6038620BD23E15A2AF833320A
S11323E039F71005B710043936860FB71007B61041
S10B23F00284FEB71002323929
S11323F836373C183CB6300481062608CE4000FF28
S113240830A82006CE4024FF30A87F30A47F30A512
S113241886044AB730A7C6035AF730A6FE30A8B6D2
S113242830A7C6063D3AF630A63ABD24C27C30A48D
S1132438B630A4B730A57A30A7FE30A8B630A7C600
S1132448063D3AF630A63ABD24C27A30A526E7B648
S113245830A4B730A57C30A6FE30A8B630A7C6068F
S11324683D3AF630A63ABD24C27A30A526E77C3038
S1132478A4B630A4B730A57C30A7FE30A8B630A7E0
S1132488C6063D3AF630A63ABD24C225277A30A5B9
S113249826E5B630A4B730A57A30A6FE30A8B63003
S11324A8A7C6063D3AF630A63ABD24C27A30A52618
S11324B8E77E243518383833323936373C183C86A9
S11324C804BD230718CE5F00B630A7C6063D183AE8
S11324D8F630A6183AA60018A700188C5F2326031E
S10D24E80D20010C18383833323986
S113400031313100003A310031003A3A31003100A7
S1134010003A31313100003A31000000003A3100F9
S11340200000003A3C3C3C3A3A3A3C003C3A003A04
S11340303C003C00003A3C3C3C003A003C00003A66
S113404000003C00003A3A3A5455524E4F20504C2E
S1134050415945522031005455524E4F20504C4145
S113406059455220320050554C5345205245534532
S113407054205041524120434F4E4649524D4152E3
S1044080003B
S113000036373C183CB630048106270AB6300581E1
S113001006270B0C2019CE3082BD22852006CE3057
S113002093BD2285BD23F80DBD2340810F26F91809
S1130030383833323936373C183CF63002C10126A1
S113004013F63003C10127068103271B20438107D0
S11300502725203DF63003C10127068107271820F4
S11300603081032702202A8601B73002CE4048BDE2
S11300702285CE305E200E8602B73002CE4057BDB8
S11300802285CE303ABD22EB7F30007F30017F30B5
S10A0090031838383332393C
S9030000FC
