S0090000626174746C657A
S1045EFF009E
S11320008E303EBD2535BD2033BD204F8601B7300F
S113201002CE402ABD235CBD24BD25FBBD20B725CF
S1132020E5BD2089250220EFBD24BD25FB810F26B7
S1132030F720D37F30007F30017F30027F30037F71
S113204030067F30077F30047F3005BD23B2393638
S1132050373C183CCE303FC624A60084C08A03A770
S113206000085A26F4CE3063C624A60084C08A032E
S1132070A700085A26F4CE5F00C6248603A70008EA
S11320805A26F818383833323936373C183CB630CB
S1132090048106270AB630058106270B0C2012CED0
S11320A04000BD235C2006CE4015BD235CBD23C388
S11320B00D18383833323936373C183C810F26072F
S11320C0BD20F32528202581032605BD2122201CBF
S11320D081072605BD21222013F63003C101270CF8
S11320E0810B2605BD21EE2003BD21A00C18383834
S11320F033323936373C183CCE4048BD235CBD24CE
S1132100BD25FB810F26030D2012B63002C6301BFD
S1132110C603BD25457F30007F30010C18383833A5
S1132120323936373C183CF63002C1012613F630FA
S113213003C10127068103271B204381072725208C
S11321403DF63003C101270681072718203081039B
S11321502702202A8601B73002CE402ABD235CCE56
S11321603063200E8602B73002CE4039BD235CCEE8
S1132170303FBD21847F30007F30017F3003183829
S11321803833323936373C183C18CE5F00C624A6A3
S11321900018A7000818085A26F5183838333239B9
S11321A036373C183C81062221F63000263A81025B
S11321B02208C60A1BB730002006C6091BB7300028
S11321C0C6371BC601BD2545201EF63001261981E0
S11321D00A2208C60710B730012006C60810B73017
S11321E001C6301B5FBD25451838383332393637C0
S11321F03C183CB6300281012705CE303F2003CE87
S113220030633CB63000C60A10C6063D3AF63001CB
S11322105A3AA600843F81032663A60084C027544B
S11322208140273B81C02707BD22C724272030F6E1
S11322303002C10127107C3007B630078104271A09
S1132240A60084C0200E7C3006B630068104270A1E
S1132250A60084C08A3CA7002023BD229720048ABC
S113226030A700B63002810127057C3005200E7CA2
S1132270300420098A0CA7008601B7300396205F3A
S1132280BD25455CBD25457F30007F300138BD212B
S11322908418383833323936373C183CF63002C1AA
S11322A0012705CE303F2003CE3063C604A6008448
S11322B0C081C026098A30A7005AC100270308201C
S11322C0EC18383833323936373C183C3CB63000D9
S11322D0F630015CBD233B250708A60081BC2749D5
S11322E0383CB63000F630015ABD233B250709A619
S11322F00081BC2734383CB630004AF63001BD2397
S11323003B250B8F8300068FA60081BC271B383C1E
S1132310B630004CF63001BD233B2517C6063AA65D
S11323200081BC2704380C200C84C08A30A70038F4
S11323300D2002380C18383833323936373C183C03
S1132340810A2B0E810F220AC1012B06C10622022B
S113235020030D20010C18383833323936373C1835
S11323603C3C18388F8300038F8604BD254C183CF1
S1132370BD238B183008CDAC0018382BECA6008197
S113238000270220E418383833323936373C183CF9
S11323901830BD23B2C603CDAC082B0AA600B14049
S11323A0472709BD2545085A2B0220EB1838383336
S11323B0323936378620C603BD25455A2B0220F80C
S11323C033323936373C183CB6300481062608CE01
S11323D04063FF300C2006CE4087FF300C7F30086E
S11323E07F300986044AB7300BC6035AF7300AFE19
S11323F0300CB6300BC6063D3AF6300A3ABD248D91
S11324007C3008B63008B730097A300BFE300CB691
S1132410300BC6063D3AF6300A3ABD248D7A3009AF
S113242026E7B63008B730097C300AFE300CB630E7
S11324300BC6063D3AF6300A3ABD248D7A30092699
S1132440E77C3008B63008B730097C300BFE300C1E
S1132450B6300BC6063D3AF6300A3ABD248D252720
S11324607A300926E5B63008B730097A300AFE30EA
S11324700CB6300BC6063D3AF6300A3ABD248D7AC6
S1132480300926E77E240018383833323936373C91
S1132490183C8604BD254C18CE5F00B6300BC6062A
S11324A03D183AF6300A183AA60018A700188C5FAF
S11024B02326030D20010C1838383332396F
S113303F004000800000000000800000000000003D
S113304F004000C0C0C0C0004000000000000000ED
S107305F8080000069
S1133063C00000004000C00000000000C000004099
S11330730080C00000000080000000000000808089
S10730830000004005
S113400047414E41444F5220504C41594552203172
S1134010212121200047414E41444F5220504C4120
S1134020594552203221212120005455524E4F200F
S11340305055544F20312031005455524E4F20508A
S11340404C4159455220320050554C53452052455D
S1134050534554205041524120434F4E4649524DFE
S113406041520031313100003A310031003A3A31E5
S1134070003100003A31313100003A3100000000D3
S11340803A31000000003A3C3C3C3A3A3A3C003CAD
S113409000003A3C003C00003A3C3C3C3A3A3A3C92
S10E40A000003A00003C00003A3A3AED
S11324BD37860EB71003C600BD24F52427860DB745
S11324CD1003C601BD24F5241B860BB71003C602E9
S11324DDBD24F5240F8607B71003C603BD24F524C8
S11324ED030D2002170C33393686043DB6100384D0
S11324FDF081F0273081E026048600201481D02657
S113250D048601200C81B026048602200486032053
S113251D001B16B61003B71003B6100384F081F038
S113252D26F70C20010D323936860FB71007B61079
S112253D0284FEB710023239F71005B7100439C3
S113254C3C183C3637861718CED90001180926FBDF
S113255C4A26F418CE00123332183838393C363047
S113256C183C37C60118A60118A70018085A26F5F6
S113257CA60018A7003318383238393C3630183CCA
S113258C37C601183A180918A60018A70118095AD1
S110259C26F5A60018A70133183832383987
S9030000FC
