S0090000626174746C657A
S11320008E3039BD2015BD23EBBD208025F5BD00E4
S11320100025F020F136373C183CBD24937F300076
S11320207F30017F30037F30067F30077F30047FAD
S11320303005BD247D18CE303AC62418A60084C0CD
S11320408A0318A70018085A26F118CE305EC62451
S113205018A60084C08A0318A70018085A26F11885
S1132060CE5F00C624860318A70018085A26F686F1
S113207001B73002CE4048BD239618383833323980
S113208036373C183C810F2611BD237C2532B630EF
S1132090028B30C603BD248C202581032605BD0098
S11320A035201C81072605BD00352013F63003C1F9
S11320B001270C810B2605BD21142003BD20C60C6D
S11320C018383833323936373C183C81062221F629
S11320D03000263A81022208C60A1BB730002006C7
S11320E0C6091BB73000C6371BC601BD248C201E91
S11320F0F630012619810A2208C60710B7300120DC
S113210006C60810B73001C6301B5FBD248C1838D2
S11321103833323936373C183CB630028101270552
S1132120CE303A2003CE305E3CB63000C60A10C62C
S1132130063D3AF630015A3AA600843F81032663ED
S1132140A60084C027548140273B81C02707BD21B6
S1132150ED24272030F63002C10127107C3007B669
S113216030078103271AA60084C0200E7C3006B6EF
S113217030068103270AA60084C08A3CA7002023D6
S1132180BD21BD20048A30A700B630028101270595
S11321907C3005200E7C300420098A0CA7008601BF
S11321A0B7300396205FBD248C5CBD248C7F300047
S11321B07F300138BD24A318383833323936373CE0
S11321C0183CF63002C1012705CE303A2003CE3048
S11321D05EC603A60084C081C026098A30A7005ABF
S11321E0C10027030820EC18383833323936373C1D
S11321F0183C3CB63000F630015CBD22612507086E
S1132200A60081BC2749383CB63000F630015ABDDF
S11322102261250709A60081BC2734383CB630006A
S11322204AF63001BD2261250B8F8300068FA6007C
S113223081BC271B383CB630004CF63001BD22610E
S11322402517C6063AA60081BC2704380C200C8446
S1132250C08A30A700380D2002380C1838383332C1
S11322603936373C183C810A2B0E810F220AC101F2
S11322702B06C106220220030D20010C1838383326
S10522803239ED
S113308247414E41444F5220504C41594552203100
S11330920047414E41444F5220504C415945522021
S10530A23200F6
S113303A0040008000000000008000000000000042
S113304A004000C0C0C000004000000000000000B2
S107305A808000006E
S113305E000000004000C00000000000C00000405E
S113306E0080C0000000008000000000000080808E
S107307E000000400A
S113228236373C183CB6300481062608CE4000FF9F
S113229230A82006CE4024FF30A87F30A47F30A58A
S11322A286044AB730A7C6035AF730A6FE30A8B64A
S11322B230A7C6063D3AF630A63ABD234C7C30A47C
S11322C2B630A4B730A57A30A7FE30A8B630A7C678
S11322D2063D3AF630A63ABD234C7A30A526E7B637
S11322E230A4B730A57C30A6FE30A8B630A7C60607
S11322F23D3AF630A63ABD234C7A30A526E77C3027
S1132302A4B630A4B730A57C30A7FE30A8B630A757
S1132312C6063D3AF630A63ABD234C25277A30A5A7
S113232226E5B630A4B730A57A30A6FE30A8B6307A
S1132332A7C6063D3AF630A63ABD234C7A30A52606
S1132342E77E22BF18383833323936373C183C8698
S113235204BD24BF18CE5F00B630A7C6063D183AA6
S1132362F630A6183AA60018A700188C5F23260395
S10D23720D20010C183838333239FD
S113400031313100003A310031003A3A31003100A7
S1134010003A31313100003A31000000003A3100F9
S11340200000003A3C3C3C3A3A3A3C003C3A003A04
S11340303C003C00003A3C3C3C003A003C00003A66
S113404000003C00003A3A3A5455524E4F20504C2E
S1134050415945522031005455524E4F20504C4145
S113406059455220320050524553494F4E45204E37
S1134070554556414D454E544520504152412043EB
S10C40804F4E4649524D415200D5
S113000036373C183CB630048106270AB6300581E1
S113001006270B0C2019CE3082BD23962006CE3045
S113002093BD2396BD22820DBD23EB810F26F918C3
S1130030383833323936373C183CF63002C10126A1
S113004013F63003C10127068103271B20438107D0
S11300502725203DF63003C10127068107271820F4
S11300603081032702202A8601B73002CE4048BDE2
S11300702396CE305E200E8602B73002CE4057BDA6
S11300802396CE303ABD24A37F30007F30017F30E9
S10A0090031838383332393C
S1045EFF009E
S113237C36373C183CCE4066BD2396BD23EB810F0B
S113238C0C26010D18383833323936373C183C3C9E
S113239C18388F8300038F8604BD24BF183CBD23DB
S11323ACC5183008CDAC0018382BECA600810027DA
S11323BC0220E418383833323936373C183C18309C
S11323CCBD247DC603CDAC082B09A60081002709CA
S11323DCBD248C085A2B0220EC1838383332393788
S11323EC860EB71003C600BD24242427860DB7100F
S11323FC03C601BD2424241B860BB71003C602BDDF
S113240C2424240F8607B71003C603BD24242403F5
S113241C0D2001173325C8393686043DB6100384C4
S113242CF081F0272F81E026048600201481D02629
S113243C048601200C81B026048602200486032025
S113244C001B16B61003B71003B6100384F081F00A
S113245C26F720010D3239183C3637C6045A18A613
S113246C00F71005B7100418085D26F1333218383C
S113247C393637C6038620BD248C5A2AF8333239B0
S113248CF71005B710043936860FB71007B61002CB
S10A249C84FEB7100232397F
S11324A336373C183C18CE5F00C624A60018A70094
S11324B30818085A26F51838383332393C183C368C
S11324C337860618CED90001180926FB4A26F418C4
S10C24D3CE0012333218383839F6
S9030000FC
