S0090000626174746C657A
S11320008E306BBD2015BD248DBD207D25F5BD23EF
S11320108725F020F1BD2535CE30D6BD2438BD2628
S1132020AFBD26AF7F30007F30017F30037F3006A5
S11320307F30077F30047F3005BD251FBD22192561
S1132040D418CE306CBD206B18CE3090BD206B18E8
S1132050CE5F00C624860018A70018085A26F68604
S113206001B73002CE4092BD243839C62418A600E8
S113207084C08A0018A70018085A26F13936373C5C
S1132080183C810F261ABD241E253BB630028B3026
S1132090C603BD252E7F30007F30017F300320250D
S11320A081032605BD23BC201C81072605BD23BC56
S11320B02013F63003C101270C810B2605BD20CC6B
S11320C02003BD231C0C18383833323936373C18FA
S11320D03CB6300281012705CE306C2003CE30900F
S11320E03CB63000C60A10C6063D3AF630015A3AEC
S11320F0A600843F81002663A60084C02754814043
S1132100273B81C02707BD21A524272030F63002B4
S1132110C10127107C3007B630078103271AA600B7
S113212084C0200E7C3006B630068103270AA60040
S113213084C08A3CA7002023BD217520048A30A7CF
S113214000B63002810127057C3005200E7C300466
S113215020098A03A7008601B7300386205FBD25C6
S11321602E5CBD252E7F30007F300138BD269318AC
S1132170383833323936373C183CF63002C101273F
S113218005CE306C2003CE3090C603A60084C081F7
S1132190C026098A30A7005AC10027030820EC187A
S11321A0383833323936373C183C3CB63000F630D8
S11321B0015CBD2366250708A60081BC2749383C7D
S11321C0B63000F630015ABD2366250709A6008102
S11321D0BC2734383CB630004AF63001BD236625AE
S11321E00B8F8300068FA60081BC271B383CB630BA
S11321F0004CF63001BD23662517C6063AA60081B9
S1132200BC2704380C200C84C08A30A700380D2069
S10C221002380C18383833323955
S11330B447414E41444F5220504C415945522031CE
S11330C40047414E41444F5220504C4159455220EF
S11330D43200424154414C4C41204E4156414C0033
S11322193CCE4092BD2438388601CE306CBD22466E
S1132229251A3CCE40A1BD2438388602CE3090BD53
S1132239224625083CCE4036BD24383839BD26828D
S1132249B73002BD263F3CCE4024BD24383886032E
S1132259C6C0BD229725363CCE4000BD24383886F9
S113226902C680BD229725253CCE4000BD243838BE
S11322798602C680BD229725143CCE4011BD243860
S1132289388603C640BD22972503BD26AF39BD252F
S11322991FBD22A62506BD263F4A26F23936BD248E
S11322A98DBD22B9250828F67F30007F30013239E7
S11322B936373C183C810F26040B0D202381030A71
S11322C9271D81070A2718810B2610B63000270F0E
S11322D9B63001270ABD22EF0B2004BD231C0A0CCA
S11322E918383833323936373C183CB63002810154
S11322F92705CE30902003CE306C37B63000C60A9D
S113230910C6063D3AF630015A3A33E70018383810
S113231933323936373C183C8106221FF6300081A6
S1132329022208C60A1BB730002006C6091BB730AB
S113233900C6371BC601BD252E201CF63001810AB3
S11323492208C60710B730012006C60810B73001A5
S1132359C6301B5FBD252E18383833323936373C21
S1132369183C810A2B0E810F220AC1012B06C106D2
S1132379220220030D20010C18383833323936373C
S11323893C183CB630048106270AB6300581062775
S11323990B0C2019CE30B4BD24382006CE30C5BD6F
S11323A92438BD25450DBD248D810F26F9183838EB
S11323B933323936373C183CF63002C1012613F65C
S11323C93003C10127068103271B204381072725E1
S11323D9203DF63003C101270681072718203081E3
S11323E9032702202A8601B73002CE4092BD243841
S11323F9CE3090200E8602B73002CE40A1BD2438DB
S1132409CE306CBD26937F30007F30017F300318B6
S10824193838333239AC
S1134000434F4C4F51554520434152475545524F1C
S113401000434F4C4F515545205355424D41524951
S11340204E4F5300434F4C4F5155452041434F523F
S1134030415A41444F00434F4D49454E5A41204C4B
S10D40404120424154414C4C410020
S1045EFF009E
S113241E36373C183CCE40B0BD2438BD248D810FD8
S113242E0C26010D18383833323936373C183C3CFB
S113243E18388F8300038F8604BD26AF183CBD2445
S113244E67183008CDAC0018382BECA60081002795
S113245E0220E418383833323936373C183C1830F9
S113246EBD251FC603CDAC082B09A6008100270984
S113247EBD252E085A2B0220EC1838383332393742
S113248E860EB71003C600BD24C62427860DB710CA
S113249E03C601BD24C6241B860BB71003C602BD9A
S11324AE24C6240F8607B71003C603BD24C624030F
S11324BE0D2001173325C8393686043DB610038422
S11324CEF081F0272F81E026048600201481D02687
S11324DE048601200C81B026048602200486032083
S11324EE001B16B61003B71003B6100384F081F068
S11324FE26F720010D3239183C3637C6045A18A671
S113250E00F71005B7100418085D26F13332183899
S113251E393637C6038620BD252E5A2AF83332396A
S113252EF71005B710043936860FB71007B6100228
S10A253E84FEB710023239DC
S113254536373C183CB6300481062608CE404AFF8F
S113255530E82006CE406EFF30E87F30E47F30E57A
S113256586044AB730E7C6035AF730E6FE30E8B6C4
S113257530E7C6063D3AF630E63ABD260F7C30E430
S1132585B630E4B730E57A30E7FE30E8B630E7C672
S1132595063D3AF630E63ABD260F7A30E526E7B62B
S11325A530E4B730E57C30E6FE30E8B630E7C60601
S11325B53D3AF630E63ABD260F7A30E526E77C301B
S11325C5E4B630E4B730E57C30E7FE30E8B630E712
S11325D5C6063D3AF630E63ABD260F25277A30E59C
S11325E526E5B630E4B730E57A30E6FE30E8B630B5
S11325F5E7C6063D3AF630E63ABD260F7A30E526BB
S1132605E77E258218383833323936373C183C860C
S113261504BD26AF18CE5F00B630E7C6063D183AAE
S1132625F630E6183AA60018A700188C5F2326038F
S10D26350D20010C18383833323937
S113404A3131313F3F3A313F313F3A3A313F313FE3
S113405A3F3A3131313F3F3A313F3F3F3F3A313FB7
S113406A3F3F3F3A3C3C3C3A3A3A3C3F3C3A3F3A7F
S113407A3C3F3C3F3F3A3C3C3C3F3A3F3C3F3F3A63
S113408A3F3F3C3F3F3A3A3A5455524E4F20504CE8
S113409A415945522031005455524E4F20504C41FB
S11340AA59455220320050524553494F4E45204EED
S11340BA554556414D454E544520504152412043A1
S10C40CA4F4E4649524D4152008B
S113263F36373C183C18CE5F00C624A6008100260E
S113264F07860318A700201F81402607861518A7A1
S113265F00201481802607863818A700200981C01E
S113266F2605860018A7000818085A26CE183838E9
S113267F33323936373CC6248600A700085A26FA67
S113268F3833323936373C183C18CE5F00C624A68F
S113269F0018A7000818085A26F5183838333239A5
S11326AF3C183C3637860818CED90001180926FB8A
S11026BF4A26F418CE001233321838383988
S9030000FC
