S0090000626174746C657A
S11320008E3039BD2015BD22EEBD207825F5BD00EA
S11320100025F020F136373C183CBD23967F300074
S11320207F30017F30027F30037F30067F30077FAF
S113203030047F3005BD2380CE303AC624A6008408
S1132040C08A03A700085A26F4CE305EC624A60030
S113205084C08A03A700085A26F4CE5F00C62486EB
S113206003A700085A26F88601B73002CE4048BDBF
S1132070229918383833323936373C183C810F26C8
S113208007BD20B42528202581032605BD00352061
S11320901C81072605BD00352013F63003C1012736
S11320A00C810B2605BD21122003BD20C40C183859
S11320B03833323936373C183CBD22802500183875
S11320C03833323936373C183C81062221F6300049
S11320D0263A81022208C60A1BB730002006C60928
S11320E01BB73000C6371BC601BD238F201EF63038
S11320F0012619810A2208C60710B730012006C636
S11321000810B73001C6301B5FBD238F1838383331
S1132110323936373C183CB6300281012705CE30BF
S11321203A2003CE305E3CB63000C60A10C6063DE7
S11321303AF630015A3AA600843F81032663A6008A
S113214084C027548140273B81C02707BD21EB244D
S1132150272030F63002C10127107C3007B6300743
S11321608103271AA60084C0200E7C3006B63006F0
S11321708103270AA60084C08A3CA7002023BD212E
S1132180BB20048A30A700B63002810127057C30C9
S113219005200E7C300420098A0CA7008601B73084
S11321A00396205FBD238F5CBD238F7F30007F307B
S11321B00138BD24A018383833323936373C183C3E
S11321C0F63002C1012705CE303A2003CE305EC678
S11321D003A60084C081C026098A30A7005AC10022
S11321E027030820EC18383833323936373C183C8A
S11321F03CB63000F630015CBD225F250708A6001E
S113220081BC2749383CB63000F630015ABD225F04
S1132210250709A60081BC2734383CB630004AF6AD
S11322203001BD225F250B8F8300068FA60081BC81
S1132230271B383CB630004CF63001BD225F251711
S1132240C6063AA60081BC2704380C200C84C08A38
S113225030A700380D2002380C183838333239369C
S1132260373C183C810A2B0E810F220AC1012B0630
S1132270C106220220030D20010C183838333239EC
S113308247414E41444F5220504C41594552203100
S11330920047414E41444F5220504C415945522021
S10530A23200F6
S113303A0040008000000000008000000000000042
S113304A004000C0C0C000004000000000000000B2
S107305A808000006E
S113305E000000004000C00000000000C00000405E
S113306E0080C0000000008000000000000080808E
S107307E000000400A
S113000036373C183CB630048106270AB6300581E1
S113001006270B0C2019CE3082BD22992006CE3043
S113002093BD2299BD23A60DBD22EE810F26F9189A
S1130030383833323936373C183CF63002C10126A1
S113004013F63003C10127068103271B20438107D0
S11300502725203DF63003C10127068107271820F4
S11300603081032702202A8601B73002CE4048BDE2
S11300702299CE305E200E8602B73002CE4057BDA4
S11300802299CE303ABD24A07F30007F30017F30EA
S10A0090031838383332393C
S1045EFF009E
S113228036373C183CCE4066BD2299BD22EE810F04
S113229026010D18383833323936373C183C3C188F
S11322A0388F8300038F8604BD24BC183CBD22C82C
S11322B0183008CDAC0018382BECA600810027029A
S11322C020E418383833323936373C183C1830BDDE
S11322D02380C603CDAC082B09A60081002709BDC5
S11322E0238F085A2B0220EC1838383332393786BA
S11322F00EB71003C600BD23272427860DB710038D
S1132300C601BD2327241B860BB71003C602BD23B9
S113231027240F8607B71003C603BD232724030D04
S11323202001173325C8393686043DB6100384F0DE
S113233081F0272F81E026048600201481D0260412
S11323408601200C81B02604860220048603200026
S11323501B16B61003B71003B6100384F081F026E1
S1132360F720010D3239183C3637C6045A18A60036
S1132370F71005B7100418085D26F1333218383900
S11323803637C6038620BD238F5A2AF8333239F7ED
S11323901005B710043936860FB71007B61002843B
S10923A0FEB71002323901
S11323A636373C183CB6300481062608CE4000FF7A
S11323B630A82006CE4024FF30A87F30A47F30A565
S11323C686044AB730A7C6035AF730A6FE30A8B625
S11323D630A7C6063D3AF630A63ABD24707C30A432
S11323E6B630A4B730A57A30A7FE30A8B630A7C653
S11323F6063D3AF630A63ABD24707A30A526E7B6ED
S113240630A4B730A57C30A6FE30A8B630A7C606E1
S11324163D3AF630A63ABD24707A30A526E77C30DC
S1132426A4B630A4B730A57C30A7FE30A8B630A732
S1132436C6063D3AF630A63ABD247025277A30A55D
S113244626E5B630A4B730A57A30A6FE30A8B63055
S1132456A7C6063D3AF630A63ABD24707A30A526BC
S1132466E77E23E318383833323936373C183C864E
S113247604BD24BC18CE5F00B630A7C6063D183A84
S1132486F630A6183AA60018A700188C5F23260370
S10D24960D20010C183838333239D8
S113400031313100003A310031003A3A31003100A7
S1134010003A31313100003A31000000003A3100F9
S11340200000003A3C3C3C3A3A3A3C003C3A003A04
S11340303C003C00003A3C3C3C003A003C00003A66
S113404000003C00003A3A3A5455524E4F20504C2E
S1134050415945522031005455524E4F20504C4145
S113406059455220320050524553494F4E45204E37
S1134070554556414D454E544520504152412043EB
S10C40804F4E4649524D415200D5
S11324A036373C183C18CE5F00C624A60018A70097
S11324B00818085A26F51838383332393C183C368F
S11324C037860618CED90001180926FB4A26F418C7
S10C24D0CE0012333218383839F9
S9030000FC
