S0090000626174746C657A
S11320008E3039BD2015BD22F4BD207825F5BD00E4
S11320100025F020F136373C183CBD239C7F30006E
S11320207F30017F30027F30037F30067F30077FAF
S113203030047F3005BD2386CE303AC624A6008402
S1132040C08A03A700085A26F4CE305EC624A60030
S113205084C08A03A700085A26F4CE5F00C62486EB
S113206003A700085A26F88601B73002CE4048BDBF
S1132070229F18383833323936373C183C810F26C2
S113208011BD22852532B630028B30C603BD23959F
S1132090202581032605BD0035201C81072605BDAA
S11320A000352013F63003C101270C810B2605BD32
S11320B021172003BD20C90C18383833323936377C
S11320C03C183C18383833323936373C183C8106D2
S11320D02221F63000263A81022208C60A1BB730B4
S11320E0002006C6091BB73000C6371BC601BD2336
S11320F095201EF630012619810A2208C60710B75A
S113210030012006C60810B73001C6301B5FBD235E
S11321109518383833323936373C183CB63002819A
S1132120012705CE303A2003CE305E3CB63000C6DF
S11321300A10C6063D3AF630015A3AA600843F8199
S1132140032663A60084C027548140273B81C0270F
S113215007BD21F024272030F63002C10127107C6E
S11321603007B630078103271AA60084C0200E7CEE
S11321703006B630068103270AA60084C08A3CA72D
S1132180002023BD21C020048A30A700B63002817C
S11321900127057C3005200E7C300420098A0CA719
S11321A0008601B7300396205FBD23955CBD23955F
S11321B07F30007F300138BD24A6183838333239D7
S11321C036373C183CF63002C1012705CE303A20A0
S11321D003CE305EC603A60084C081C026098A30BF
S11321E0A7005AC10027030820EC183838333239C5
S11321F036373C183C3CB63000F630015CBD2264F6
S1132200250708A60081BC2749383CB63000F630C3
S1132210015ABD2264250709A60081BC2734383C35
S1132220B630004AF63001BD2264250B8F830006C8
S11322308FA60081BC271B383CB630004CF6300119
S1132240BD22642517C6063AA60081BC2704380CB3
S1132250200C84C08A30A700380D2002380C1838AE
S11322603833323936373C183C810A2B0E810F2221
S11322700AC1012B06C106220220030D20010C18FD
S1082280383833323947
S113308247414E41444F5220504C41594552203100
S11330920047414E41444F5220504C415945522021
S10530A23200F6
S113303A0040008000000000008000000000000042
S113304A004000C0C0C000004000000000000000B2
S107305A808000006E
S113305E000000004000C00000000000C00000405E
S113306E0080C0000000008000000000000080808E
S107307E000000400A
S113000036373C183CB630048106270AB6300581E1
S113001006270B0C2019CE3082BD229F2006CE303D
S113002093BD229FBD23AC0DBD22F4810F26F91888
S1130030383833323936373C183CF63002C10126A1
S113004013F63003C10127068103271B20438107D0
S11300502725203DF63003C10127068107271820F4
S11300603081032702202A8601B73002CE4048BDE2
S1130070229FCE305E200E8602B73002CE4057BD9E
S1130080229FCE303ABD24A67F30007F30017F30DE
S10A0090031838383332393C
S1045EFF009E
S113228536373C183CCE4066BD229FBD22F4810FF3
S11322950C26010D18383833323936373C183C3C96
S11322A518388F8300038F8604BD24C2183CBD22D1
S11322B5CE183008CDAC0018382BECA600810027C9
S11322C50220E418383833323936373C183C183094
S11322D5BD2386C603CDAC082B09A60081002709BA
S11322E5BD2395085A2B0220EC1838383332393778
S11322F5860EB71003C600BD232D2427860DB710FF
S113230503C601BD232D241B860BB71003C602BDCE
S1132315232D240F8607B71003C603BD232D2403DD
S11323250D2001173325C8393686043DB6100384BC
S1132335F081F0272F81E026048600201481D02621
S1132345048601200C81B02604860220048603201D
S1132355001B16B61003B71003B6100384F081F002
S113236526F720010D3239183C3637C6045A18A60B
S113237500F71005B7100418085D26F13332183834
S1132385393637C6038620BD23955A2AF8333239A0
S1132395F71005B710043936860FB71007B61002C3
S10A23A584FEB71002323977
S11323AC36373C183CB6300481062608CE4000FF74
S11323BC30A82006CE4024FF30A87F30A47F30A55F
S11323CC86044AB730A7C6035AF730A6FE30A8B61F
S11323DC30A7C6063D3AF630A63ABD24767C30A426
S11323ECB630A4B730A57A30A7FE30A8B630A7C64D
S11323FC063D3AF630A63ABD24767A30A526E7B6E1
S113240C30A4B730A57C30A6FE30A8B630A7C606DB
S113241C3D3AF630A63ABD24767A30A526E77C30D0
S113242CA4B630A4B730A57C30A7FE30A8B630A72C
S113243CC6063D3AF630A63ABD247625277A30A551
S113244C26E5B630A4B730A57A30A6FE30A8B6304F
S113245CA7C6063D3AF630A63ABD24767A30A526B0
S113246CE77E23E918383833323936373C183C8642
S113247C04BD24C218CE5F00B630A7C6063D183A78
S113248CF630A6183AA60018A700188C5F2326036A
S10D249C0D20010C183838333239D2
S113400031313100003A310031003A3A31003100A7
S1134010003A31313100003A31000000003A3100F9
S11340200000003A3C3C3C3A3A3A3C003C3A003A04
S11340303C003C00003A3C3C3C003A003C00003A66
S113404000003C00003A3A3A5455524E4F20504C2E
S1134050415945522031005455524E4F20504C4145
S113406059455220320050524553494F4E45204E37
S1134070554556414D454E544520504152412043EB
S10C40804F4E4649524D415200D5
S11324A636373C183C18CE5F00C624A60018A70091
S11324B60818085A26F51838383332393C183C3689
S11324C637860618CED90001180926FB4A26F418C1
S10C24D6CE0012333218383839F3
S9030000FC
