S0090000626174746C657A
S11320008E3039BD2015BD23C9BD207625F5BD0010
S11320102125F020F1BD24717F30007F30017F3015
S1132020037F30067F30077F30047F3005BD245B9B
S113203018CE303AC62418A60084C08A0018A70017
S113204018085A26F118CE305EC62418A60084C09B
S11320508A0018A70018085A26F118CE5F00C62473
S1132060860018A70018085A26F68601B73002CE53
S11320704048BD23743936373C183C810F261ABDBD
S1132080235A253BB630028B30C603BD246A7F3009
S1132090007F30017F3003202581032605BD0056D3
S11320A0201C81072605BD00562013F63003C1010C
S11320B0270C810B2605BD21132003BD20C50C1858
S11320C0383833323936373C183C81062221F63011
S11320D000263A81022208C60A1BB730002006C631
S11320E0091BB73000C6371BC601BD246A201EF683
S11320F030012619810A2208C60710B730012006CC
S1132100C60810B73001C6301B5FBD246A183838C2
S113211033323936373C183CB6300281012705CEBC
S1132120303A2003CE305E3CB63000C60A10C606F4
S11321303D3AF630015A3AA600843F81002663A650
S11321400084C027548140273B81C02707BD21EC70
S113215024272030F63002C10127107C3007B63026
S1132160078103271AA60084C0200E7C3006B630EF
S1132170068103270AA60084C08A3CA7002023BD49
S113218021BC20048A30A700B63002810127057CD7
S11321903005200E7C300420098A03A7008601B78D
S11321A0300386205FBD246A5CBD246A7F30007FD3
S11321B0300138BD248118383833323936373C1869
S11321C03CF63002C1012705CE303A2003CE305E02
S11321D0C603A60084C081C026098A30A7005AC15C
S11321E00027030820EC18383833323936373C18C6
S11321F03C3CB63000F630015CBD0000250708A663
S11322000081BC2749383CB63000F630015ABD0085
S113221000250709A60081BC2734383CB630004AA3
S1132220F63001BD0000250B8F8300068FA60081C8
S1132230BC271B383CB630004CF63001BD000025ED
S113224017C6063AA60081BC2704380C200C84C0AB
S11322508A30A700380D2002380C18383833323948
S113308247414E41444F5220504C41594552203100
S11330920047414E41444F5220504C415945522021
S10530A23200F6
S113303A0040008000000000008000000000000042
S113304A004000C0C0C000004000000000000000B2
S107305A808000006E
S113305E000000004000C00000000000C00000405E
S113306E0080C0000000008000000000000080808E
S107307E000000400A
S113226036373C183CB6300481062608CE4000FFC1
S113227030A82006CE4024FF30A87F30A47F30A5AC
S113228086044AB730A7C6035AF730A6FE30A8B66C
S113229030A7C6063D3AF630A63ABD232A7C30A4C0
S11322A0B630A4B730A57A30A7FE30A8B630A7C69A
S11322B0063D3AF630A63ABD232A7A30A526E7B67B
S11322C030A4B730A57C30A6FE30A8B630A7C60629
S11322D03D3AF630A63ABD232A7A30A526E77C306B
S11322E0A4B630A4B730A57C30A7FE30A8B630A77A
S11322F0C6063D3AF630A63ABD232A25277A30A5EC
S113230026E5B630A4B730A57A30A6FE30A8B6309C
S1132310A7C6063D3AF630A63ABD232A7A30A5264A
S1132320E77E229D18383833323936373C183C86DC
S113233004BD249D18CE5F00B630A7C6063D183AEA
S1132340F630A6183AA60018A700188C5F232603B7
S10D23500D20010C1838383332391F
S11340003131313F3F3A313F313F3A3A313F313F2D
S11340103F3A3131313F3F3A313F3F3F3F3A313F01
S11340203F3F3F3A3C3C3C3A3A3A3C3F3C3A3F3AC9
S11340303C3F3C3F3F3A3C3C3C3F3A3F3C3F3F3AAD
S11340403F3F3C3F3F3A3A3A5455524E4F20504C32
S1134050415945522031005455524E4F20504C4145
S113406059455220320050524553494F4E45204E37
S1134070554556414D454E544520504152412043EB
S10C40804F4E4649524D415200D5
S113000036373C183C810A2B0E810F220AC1012B82
S113001006C106220220030D20010C1838383332A1
S11300203936373C183CB630048106270AB6300509
S11300308106270B0C2019CE3082BD23742006CEF6
S11300403093BD2374BD22600DBD23C9810F26F9F1
S113005018383833323936373C183CF63002C1018F
S11300602613F63003C10127068103271B20438191
S1130070072725203DF63003C101270681072718ED
S1130080203081032702202A8601B73002CE40485F
S1130090BD2374CE305E200E8602B73002CE4057A8
S11300A0BD2374CE303ABD24817F30007F30017F80
S10B00B03003183838333239EB
S1045EFF009E
S113235A36373C183CCE4066BD2374BD23C9810F71
S113236A0C26010D18383833323936373C183C3CC0
S113237A18388F8300038F8604BD249D183CBD231F
S113238AA3183008CDAC0018382BECA6008100271E
S113239A0220E418383833323936373C183C1830BE
S11323AABD245BC603CDAC082B09A600810027090E
S11323BABD246A085A2B0220EC18383833323937CC
S11323CA860EB71003C600BD24022427860DB71053
S11323DA03C601BD2402241B860BB71003C602BD23
S11323EA2402240F8607B71003C603BD240224035C
S11323FA0D2001173325C8393686043DB6100384E7
S113240AF081F0272F81E026048600201481D0264B
S113241A048601200C81B026048602200486032047
S113242A001B16B61003B71003B6100384F081F02C
S113243A26F720010D3239183C3637C6045A18A635
S113244A00F71005B7100418085D26F1333218385E
S113245A393637C6038620BD246A5A2AF8333239F4
S113246AF71005B710043936860FB71007B61002ED
S10A247A84FEB710023239A1
S113248136373C183C18CE5F00C624A60018A700B6
S11324910818085A26F51838383332393C183C36AE
S11324A137860618CED90001180926FB4A26F418E6
S10C24B1CE001233321838383918
S9030000FC
