S0090000626174746C657A
S11320008E3039BD2015BD22F2BD207825F5BD00E6
S11320100025F020F136373C183CBD239A7F300070
S11320207F30017F30027F30037F30067F30077FAF
S113203030047F3005BD2384CE303AC624A6008404
S1132040C08A03A700085A26F4CE305EC624A60030
S113205084C08A03A700085A26F4CE5F00C62486EB
S113206003A700085A26F88601B73002CE4048BDBF
S1132070229D18383833323936373C183C810F26C4
S113208007BD20B42528202581032605BD00352061
S11320901C81072605BD00352013F63003C1012736
S11320A00C810B2605BD212F2003BD20E10C18381F
S11320B03833323936373C183CCE4066BD229DBD9C
S11320C022F2810F26030D2012B63002C6301BC641
S11320D003BD23937F30007F30010C18383833322E
S11320E03936373C183C81062221F63000263A81E5
S11320F0022208C60A1BB730002006C6091BB730E7
S113210000C6371BC601BD2393201EF630012619D5
S1132110810A2208C60710B730012006C60810B786
S11321203001C6301B5FBD2393183838333239363B
S1132130373C183CB6300281012705CE303A2003E3
S1132140CE305E3CB63000C60A10C6063D3AF630C4
S1132150015A3AA600843F81032663A60084C0275F
S1132160548140273B81C02707BD22082427203003
S1132170F63002C10127107C3007B63007810327EF
S11321801AA60084C0200E7C3006B63006810327D0
S11321900AA60084C08A3CA7002023BD21D82004BD
S11321A08A30A700B63002810127057C3005200E55
S11321B07C300420098A0CA7008601B730039620DE
S11321C05FBD23935CBD23937F30007F300138BD16
S11321D023AA18383833323936373C183CF63002E3
S11321E0C1012705CE303A2003CE305EC603A600D7
S11321F084C081C026098A30A7005AC10027030879
S113220020EC18383833323936373C183C3CB63079
S113221000F630015CBD227C250708A60081BC279E
S113222049383CB63000F630015ABD227C250709F6
S1132230A60081BC2734383CB630004AF63001BDD4
S1132240227C250B8F8300068FA60081BC271B38B8
S11322503CB630004CF63001BD227C2517C6063A48
S1132260A60081BC2704380C200C84C08A30A70047
S1132270380D2002380C18383833323936373C18C8
S11322803C810A2B0E810F220AC1012B06C10622B2
S11022900220030D20010C183838333239B8
S113308247414E41444F5220504C41594552203100
S11330920047414E41444F5220504C415945522021
S10530A23200F6
S113303A0040008000000000008000000000000042
S113304A004000C0C0C000004000000000000000B2
S107305A808000006E
S113305E000000004000C00000000000C00000405E
S113306E0080C0000000008000000000000080808E
S107307E000000400A
S113000036373C183CB630048106270AB6300581E1
S113001006270B0C2019CE3082BD229D2006CE303F
S113002093BD229DBD23E30DBD22F2810F26F91855
S1130030383833323936373C183CF63002C10126A1
S113004013F63003C10127068103271B20438107D0
S11300502725203DF63003C10127068107271820F4
S11300603081032702202A8601B73002CE4048BDE2
S1130070229DCE305E200E8602B73002CE4057BDA0
S1130080229DCE303ABD23AA7F30007F30017F30DD
S10A0090031838383332393C
S1045EFF009E
S113229D36373C183C3C18388F8300038F8604BDB9
S11322AD23C6183CBD22CC183008CDAC0018382BF1
S11322BDECA6008100270220E41838383332393671
S11322CD373C183C1830BD2384C603CDAC082B090C
S11322DDA60081002709BD2393085A2B0220EC1870
S11322ED383833323937860EB71003C600BD232B69
S11322FD2427860DB71003C601BD232B241B860B83
S113230DB71003C602BD232B240F8607B71003C6CF
S113231D03BD232B24030D2001173325C83936861D
S113232D043DB6100384F081F0272F81E026048646
S113233D00201481D026048601200C81B026048649
S113234D022004860320001B16B61003B71003B633
S113235D100384F081F026F720010D3239183C3634
S113236D37C6045A18A600F71005B7100418085DEF
S113237D26F133321838393637C6038620BD2393F8
S113238D5A2AF8333239F71005B710043936860F47
S110239DB71007B6100284FEB710023239E3
S11323AA36373C183C18CE5F00C624A60018A7008E
S11323BA0818085A26F51838383332393C183C3686
S11323CA37860618CED90001180926FB4A26F418BE
S10C23DACE0012333218383839F0
S11323E336373C183CB6300481062608CE4000FF3D
S11323F330A82006CE4024FF30A87F30A47F30A528
S113240386044AB730A7C6035AF730A6FE30A8B6E7
S113241330A7C6063D3AF630A63ABD24AD7C30A4B7
S1132423B630A4B730A57A30A7FE30A8B630A7C615
S1132433063D3AF630A63ABD24AD7A30A526E7B672
S113244330A4B730A57C30A6FE30A8B630A7C606A4
S11324533D3AF630A63ABD24AD7A30A526E77C3062
S1132463A4B630A4B730A57C30A7FE30A8B630A7F5
S1132473C6063D3AF630A63ABD24AD25277A30A5E3
S113248326E5B630A4B730A57A30A6FE30A8B63018
S1132493A7C6063D3AF630A63ABD24AD7A30A52642
S11324A3E77E242018383833323936373C183C86D3
S11324B304BD23C618CE5F00B630A7C6063D183A3E
S11324C3F630A6183AA60018A700188C5F23260333
S10D24D30D20010C1838383332399B
S113400031313100003A310031003A3A31003100A7
S1134010003A31313100003A31000000003A3100F9
S11340200000003A3C3C3C3A3A3A3C003C3A003A04
S11340303C003C00003A3C3C3C003A003C00003A66
S113404000003C00003A3A3A5455524E4F20504C2E
S1134050415945522031005455524E4F20504C4145
S113406059455220320050554C5345205245534532
S113407054205041524120434F4E4649524D4152E3
S1044080003B
S9030000FC
