S0090000626174746C657A
S11320008E303EBD24C6BD2026BD20428601B73099
S113201002CE402ABD22BDBD241EBD207C25E7BDC5
S1132020000025E220F17F30007F30017F30027F05
S113203030037F30067F30077F30047F3005BD23B7
S1132040133936373C183CCE303FC624A60084C032
S11320508A03A700085A26F4CE3063C624A6008457
S1132060C08A03A700085A26F4CE5F00C62486035C
S1132070A700085A26F818383833323936373C184E
S11320803C810F2607BD20B825282025810326057D
S1132090BD0035201C81072605BD00352013F63010
S11320A003C101270C810B2605BD214F2003BD214F
S11320B0010C18383833323936373C183CCE404896
S11320C0BD22BDBD241E810F26030D2012B6300291
S11320D0C6301BC603BD24BF7F30007F30010C18FF
S11320E0383833323936373C183C18CE5F00C624B2
S11320F0A60018A7000818085A26F51838383332ED
S11321003936373C183C81062221F63000263A81C4
S1132110022208C60A1BB730002006C6091BB730C6
S113212000C6371BC601BD24BF201EF63001261988
S1132130810A2208C60710B730012006C60810B766
S11321403001C6301B5FBD24BF18383833323936EE
S1132150373C183CB6300281012705CE303F2003BE
S1132160CE30633CB63000C60A10C6063D3AF6309F
S1132170015A3AA600843F81032663A60084C0273F
S1132180548140273B81C02707BD222824272030C3
S1132190F63002C10127107C3007B63007810427CE
S11321A01AA60084C0200E7C3006B63006810427AF
S11321B00AA60084C08A3CA7002023BD21F820047D
S11321C08A30A700B63002810127057C3005200E35
S11321D07C300420098A0CA7008601B730039620BE
S11321E05FBD24BF5CBD24BF7F30007F300138BD9C
S11321F020E518383833323936373C183CF630028B
S1132200C1012705CE303F2003CE3063C604A600AB
S113221084C081C026098A30A7005AC10027030858
S113222020EC18383833323936373C183C3CB63059
S113223000F630015CBD229C250708A60081BC275E
S113224049383CB63000F630015ABD229C250709B6
S1132250A60081BC2734383CB630004AF63001BDB4
S1132260229C250B8F8300068FA60081BC271B3878
S11322703CB630004CF63001BD229C2517C6063A08
S1132280A60081BC2704380C200C84C08A30A70027
S1132290380D2002380C18383833323936373C18A8
S11322A03C810A2B0E810F220AC1012B06C1062292
S11322B00220030D20010C18383833323936373CEC
S11322C0183C3C18388F8300038F8604BD24D6182D
S11322D03CBD22EC183008CDAC0018382BECA6001D
S11322E08100270220E418383833323936373C1855
S11322F03C1830BD2313C603CDAC082B0AA600B18D
S113230040472709BD24BF085A2B0220EB18383850
S113231033323936378620C603BD24BF5A2B0220F8
S1132320F833323936373C183CB630048106260877
S1132330CE4063FF300C2006CE4087FF300C7F3048
S1132340087F300986044AB7300BC6035AF7300AAF
S1132350FE300CB6300BC6063D3AF6300A3ABD23C1
S1132360EE7C3008B63008B730097A300BFE300CFA
S1132370B6300BC6063D3AF6300A3ABD23EE7A3043
S11323800926E7B63008B730097C300AFE300CB6AF
S1132390300BC6063D3AF6300A3ABD23EE7A3009D0
S11323A026E77C3008B63008B730097C300BFE30A5
S11323B00CB6300BC6063D3AF6300A3ABD23EE257C
S11323C0277A300926E5B63008B730097A300AFE94
S11323D0300CB6300BC6063D3AF6300A3ABD23EE51
S11323E07A300926E77E2361183838333239363794
S11323F03C183C8604BD24D618CE5F00B6300BC60C
S1132400063D183AF6300A183AA60018A700188CA8
S11124105F2326030D20010C183838333239AF
S113303F004000800000000000800000000000003D
S113304F004000C0C0C0C0004000000000000000ED
S107305F8080000069
S1133063C00000004000C00000000000C000004099
S11330730080C00000000080000000000000808089
S10730830000004005
S113400047414E41444F5220504C41594552203172
S1134010212121200047414E41444F5220504C4120
S1134020594552203221212120005455524E4F200F
S1134030504C415945522031005455524E4F205056
S11340404C4159455220320050554C53452052455D
S1134050534554205041524120434F4E4649524DFE
S113406041520031313100003A310031003A3A31E5
S1134070003100003A31313100003A3100000000D3
S11340803A31000000003A3C3C3C3A3A3A3C003CAD
S113409000003A3C003C00003A3C3C3C3A3A3A3C92
S10E40A000003A00003C00003A3A3AED
S1045EFF009E
S113241E37860EB71003C600BD24572427860DB782
S113242E1003C601BD2457241B860BB71003C60226
S113243EBD2457240F8607B71003C603BD245724A3
S113244E030D2001173325C8393686043DB6100313
S113245E84F081F0272F81E026048600201481D099
S113246E26048601200C81B02604860220048603ED
S113247E20001B16B61003B71003B6100384F081A8
S113248EF026F720010D3239183C3637C6045A1897
S113249EA600F71005B7100418085D26F13332189C
S11324AE38393637C6038620BD24BF5A2AF833324C
S11324BE39F71005B710043936860FB71007B61062
S10B24CE0284FEB7100232394A
S113000036373C183CB630048106270AB6300581E1
S113001006270B0C2019CE4000BD22BD2006CE4081
S113002015BD22BDBD23240DBD241E810F26F91844
S1130030383833323936373C183CF63002C10126A1
S113004013F63003C10127068103271B20438107D0
S11300502725203DF63003C10127068107271820F4
S11300603081032702202A8601B73002CE402ABD00
S113007022BDCE3063200E8602B73002CE4039BD99
S113008022BDCE303FBD20E57F30007F30017F3080
S10A0090031838383332393C
S11324D63C183C3637861218CED90001180926FB5B
S11324E64A26F418CE00123332183838393C3630BE
S11324F6183C37C60118A60118A70018085A26F56D
S1132506A60018A7003318383238393C3630183C40
S113251637C601183A180918A60018A70118095A47
S110252626F5A60018A701331838323839FD
S9030000FC
