S0090000626174746C657A
S11320008E306BBD2015BD2587BD207D25F5BD23F4
S11320108725F020F1BD262FCE30D6BD2532BD2632
S1132020AFBD26AF7F30007F30017F30037F3006A5
S11320307F30077F30047F3005BD2619BD22192566
S1132040D418CE306CBD206B18CE3090BD206B18E8
S1132050CE5F00C624860018A70018085A26F68604
S113206001B73002CE4091BD253239C62418A600EE
S113207084C08A0018A70018085A26F13936373C5C
S1132080183C810F261ABD2518253BB630028B302B
S1132090C603BD26287F30007F30017F3003202512
S11320A081032605BD23BC201C81072605BD23BC56
S11320B02013F63003C101270C810B2605BD20CC6B
S11320C02003BD231C0C18383833323936373C18FA
S11320D03CB6300281012705CE306C2003CE30900F
S11320E03CB63000C60A10C6063D3AF630015A3AEC
S11320F0A600843F81002663A60084C02754814043
S1132100273B81C02707BD21A524272030F63002B4
S1132110C10127107C3007B630078103271AA600B7
S113212084C0200E7C3006B630068103270AA60040
S113213084C08A3CA7002023BD217520048A30A7CF
S113214000B63002810127057C3005200E7C300466
S113215020098A03A7008601B7300386205FBD26C5
S1132160285CBD26287F30007F300138BD269318B7
S1132170383833323936373C183CF63002C101273F
S113218005CE306C2003CE3090C603A60084C081F7
S1132190C026098A30A7005AC10027030820EC187A
S11321A0383833323936373C183C3CB63000F630D8
S11321B0015CBD2366250708A60081BC2749383C7D
S11321C0B63000F630015ABD2366250709A6008102
S11321D0BC2734383CB630004AF63001BD236625AE
S11321E00B8F8300068FA60081BC271B383CB630BA
S11321F0004CF63001BD23662517C6063AA60081B9
S1132200BC2704380C200C84C08A30A700380D2069
S10C221002380C18383833323955
S11330B447414E41444F5220504C415945522031CE
S11330C40047414E41444F5220504C4159455220EF
S11330D43200424154414C4C41204E4156414C0033
S11322193CCE4091BD2532388601CE306CBD224674
S1132229251A3CCE40A0BD2532388602CE3090BD59
S1132239224625083CCE4035BD25323839BD268293
S1132249B73002BD263F3CCE4023BD253238860334
S1132259C6C0BD229725363CCE4000BD25323886FE
S113226902C680BD229725253CCE4000BD253238C3
S11322798602C680BD229725143CCE4011BD253265
S1132289388603C640BD22972503BD26AF39BD262E
S113229919BD22A62506BD263F4A26F23936BD2593
S11322A987BD22B9250828F67F30007F30013239ED
S11322B936373C183C810F26040B0D202381030A71
S11322C9271D81070A2718810B2610B63000270F0E
S11322D9B63001270ABD22EF0B2004BD231C0A0CCA
S11322E918383833323936373C183CB63002810154
S11322F92705CE30902003CE306C37B63000C60A9D
S113230910C6063D3AF630015A3A33E70018383810
S113231933323936373C183C8106221FF6300081A6
S1132329022208C60A1BB730002006C6091BB730AB
S113233900C6371BC601BD2628201CF63001810AB8
S11323492208C60710B730012006C60810B73001A5
S1132359C6301B5FBD262818383833323936373C26
S1132369183C810A2B0E810F220AC1012B06C106D2
S1132379220220030D20010C18383833323936373C
S11323893C183CB630048106270AB6300581062775
S11323990B0C2019CE30B4BD25322006CE30C5BD74
S11323A92532BD241E0DBD2587810F26F91838381D
S11323B933323936373C183CF63002C1012613F65C
S11323C93003C10127068103271B204381072725E1
S11323D9203DF63003C101270681072718203081E3
S11323E9032702202A8601B73002CE4091BD253247
S11323F9CE3090200E8602B73002CE40A0BD2532E1
S1132409CE306CBD26937F30007F30017F300318B6
S10824193838333239AC
S1134000434F4C4F51554520434152475545524F1C
S113401000434F4C4F515545205355424D41524951
S11340204E4F00434F4C4F5155452041434F524151
S11340305A41444F00434F4D49454E5A41204C414B
S10C404020424154414C4C410062
S113241E36373C183CB6300481062608CE4049FFB8
S113242E30E82006CE406DFF30E87F30E47F30E5A3
S113243E86044AB730E7C6035AF730E6FE30E8B6EC
S113244E30E7C6063D3AF630E63ABD24E87C30E481
S113245EB630E4B730E57A30E7FE30E8B630E7C69A
S113246E063D3AF630E63ABD24E87A30E526E7B67C
S113247E30E4B730E57C30E6FE30E8B630E7C60629
S113248E3D3AF630E63ABD24E87A30E526E77C306C
S113249EE4B630E4B730E57C30E7FE30E8B630E73A
S11324AEC6063D3AF630E63ABD24E825277A30E5ED
S11324BE26E5B630E4B730E57A30E6FE30E8B630DD
S11324CEE7C6063D3AF630E63ABD24E87A30E5260C
S11324DEE77E245B18383833323936373C183C865D
S11324EE04BD26AF18CE5F00B630E7C6063D183AD7
S11324FEF630E6183AA60018A700188C5F232603B8
S10D250E0D20010C1838383332395F
S11340493131313F3F3A313F313F3A3A313F313FE4
S11340593F3A3131313F3F3A313F3F3F3F3A313FB8
S11340693F3F3F3A3C3C3C3A3A3A3C3F3C3A3F3A80
S11340793C3F3C3F3F3A3C3C3C3F3A3F3C3F3F3A64
S11340893F3F3C3F3F3A3A3A5455524E4F20504CE9
S1134099415945522031005455524E4F20504C41FC
S11340A959455220320050524553494F4E45204EEE
S11340B9554556414D454E544520504152412043A2
S10C40C94F4E4649524D4152008C
S1045EFF009E
S113251836373C183CCE40AFBD2532BD2587810FE8
S11325280C26010D18383833323936373C183C3C00
S113253818388F8300038F8604BD26AF183CBD2549
S113254861183008CDAC0018382BECA600810027A0
S11325580220E418383833323936373C183C1830FE
S1132568BD2619C603CDAC082B09A600810027098E
S1132578BD2628085A2B0220EC183838333239374C
S1132588860EB71003C600BD25C02427860DB710D4
S113259803C601BD25C0241B860BB71003C602BDA4
S11325A825C0240F8607B71003C603BD25C024031E
S11325B80D2001173325C8393686043DB610038427
S11325C8F081F0272F81E026048600201481D0268C
S11325D8048601200C81B026048602200486032088
S11325E8001B16B61003B71003B6100384F081F06D
S11325F826F720010D3239183C3637C6045A18A676
S113260800F71005B7100418085D26F1333218389E
S1132618393637C6038620BD26285A2AF833323974
S1132628F71005B710043936860FB71007B610022D
S10A263884FEB710023239E1
S113263F36373C183C18CE5F00C624A6008100260E
S113264F07860318A700201F81402607861518A7A1
S113265F00201481802607863818A700200981C01E
S113266F2605860018A7000818085A26CE183838E9
S113267F33323936373CC6248600A700085A26FA67
S113268F3833323936373C183C18CE5F00C624A68F
S113269F0018A7000818085A26F5183838333239A5
S11326AF3C183C3637860618CED90001180926FB8C
S11026BF4A26F418CE001233321838383988
S9030000FC
