S0090000626174746C657A
S11320008E306BBD2015BD2556BD207925F5BD2329
S11320105625F020F1BD25FE7F30007F30017F3052
S1132020037F30067F30077F30047F3005BD25E80D
S1132030BD221518CE306CC62418A60084C08A00B0
S113204018A70018085A26F118CE3090C62418A6EE
S11320500084C08A0018A70018085A26F118CE5F19
S113206000C624860018A70018085A26F68601B769
S11320703002CE407DBD25013936373C183C810FF6
S1132080261ABD24E7253BB630028B30C603BD2596
S1132090F77F30007F30017F300320258103260540
S11320A0BD238B201C81072605BD238B2013F6300E
S11320B003C101270C810B2605BD20C82003BD22C6
S11320C0EB0C18383833323936373C183CB630020A
S11320D081012705CE306C2003CE30903CB6300011
S11320E0C60A10C6063D3AF630015A3AA600843FA5
S11320F081002663A60084C027548140273B81C009
S11321002707BD21A124272030F63002C101271062
S11321107C3007B630078103271AA60084C0200E3E
S11321207C3006B630068103270AA60084C08A3CA8
S1132130A7002023BD217120048A30A700B63002F5
S1132140810127057C3005200E7C300420098A0398
S1132150A7008601B7300386205FBD25F75CBD2547
S1132160F77F30007F300138BD26621838383332AB
S11321703936373C183CF63002C1012705CE306CA5
S11321802003CE3090C603A60084C081C026098AED
S113219030A7005AC10027030820EC18383833321E
S11321A03936373C183C3CB63000F630015CBD2370
S11321B035250708A60081BC2749383CB63000F60F
S11321C030015ABD2335250709A60081BC273438C0
S11321D03CB630004AF63001BD2335250B8F830011
S11321E0068FA60081BC271B383CB630004CF63065
S11321F001BD23352517C6063AA60081BC2704383D
S11322000C200C84C08A30A700380D2002380C182A
S10822103838333239B7
S11330B447414E41444F5220504C415945522031CE
S11330C40047414E41444F5220504C4159455220EF
S10530D43200C4
S113306C0000000000000000000000000000000050
S113307C0000000000000000000000000000000040
S107308C000000003C
S1133090000000004000C00000000000C00000402C
S11330A00080C0000000008000000000000080805C
S10730B000000040D8
S11322158601CE306CBD22298602CE3090BD22299E
S1132225BD255639BD2651B73002BD260E3CCE40DC
S113223523BD2501388603C6C0BD22723CCE4000AD
S1132245BD2501388602C680BD22723CCE4000BD44
S11322552501388602C680BD22723CCE4011BD25BB
S113226501388603C640BD2272BD267E39BD25E8E8
S1132275BD2281BD260E25034A26F23936BD2556D3
S1132285BD229228F87F30007F3001323936373C41
S1132295183C810F26040B0D201981030A2713818D
S11322A5070A270E810B2606BD22BE0B2004BD227C
S11322B5EB0A0C18383833323936373C183CB6300B
S11322C50281012705CE30902003CE306C37B6301D
S11322D500C60A10C6063D3AF630015A3A33E700FD
S11322E518383833323936373C183C8106221FF604
S11322F5300081022208C60A1BB730002006C60931
S11323051BB73000C6371BC601BD25F7201CF630A8
S113231501810A2208C60710B730012006C6081035
S1132325B73001C6301B5FBD25F71838383332394D
S113233536373C183C810A2B0E810F220AC1012B2A
S113234506C106220220030D20010C183838333249
S11323553936373C183CB630048106270AB63005B1
S11323658106270B0C2019CE30B4BD25012006CEDD
S113237530C5BD2501BD23ED0DBD2556810F26F9BB
S113238518383833323936373C183CF63002C10137
S11323952613F63003C10127068103271B20438139
S11323A5072725203DF63003C10127068107271895
S11323B5203081032702202A8601B73002CE407DD2
S11323C5BD2501CE3090200E8602B73002CE408C5A
S11323D5BD2501CE306CBD26627F30007F30017F84
S10B23E5300318383833323993
S1134000434F4C4F51554520434152475545524F1C
S113401000434F4C4F515545205355424D41524951
S11340204E4F00434F4C4F5155452041434F524151
S10840305A41444F0059
S11323ED36373C183CB6300481062608CE4035FFFE
S11323FD30DA2006CE4059FF30DA7F30D67F30D721
S113240D86044AB730D9C6035AF730D8FE30DAB647
S113241D30D9C6063D3AF630D83ABD24B77C30D60D
S113242DB630D6B730D77A30D9FE30DAB630D9C611
S113243D063D3AF630D83ABD24B77A30D726E7B6FA
S113244D30D6B730D77C30D8FE30DAB630D9C606A0
S113245D3D3AF630D83ABD24B77A30D726E77C30EA
S113246DD6B630D6B730D77C30D9FE30DAB630D9BF
S113247DC6063D3AF630D83ABD24B725277A30D76B
S113248D26E5B630D6B730D77A30D8FE30DAB63046
S113249DD9C6063D3AF630D83ABD24B77A30D72698
S11324ADE77E242A18383833323936373C183C86BF
S11324BD04BD267E18CE5F00B630D9C6063D183A47
S11324CDF630D8183AA60018A700188C5F232603F7
S10D24DD0D20010C18383833323991
S11340353131313F3F3A313F313F3A3A313F313FF8
S11340453F3A3131313F3F3A313F3F3F3F3A313FCC
S11340553F3F3F3A3C3C3C3A3A3A3C3F3C3A3F3A94
S11340653C3F3C3F3F3A3C3C3C3F3A3F3C3F3F3A78
S11340753F3F3C3F3F3A3A3A5455524E4F20504CFD
S1134085415945522031005455524E4F20504C4110
S113409559455220320050524553494F4E45204E02
S11340A5554556414D454E544520504152412043B6
S10C40B54F4E4649524D415200A0
S1045EFF009E
S11324E736373C183CCE409BBD2501BD2556810F90
S11324F70C26010D18383833323936373C183C3C32
S113250718388F8300038F8604BD267E183CBD25AB
S113251730183008CDAC0018382BECA60081002702
S11325270220E418383833323936373C183C18302F
S1132537BD25E8C603CDAC082B09A60081002709F1
S1132547BD25F7085A2B0220EC18383833323937AF
S1132557860EB71003C600BD258F2427860DB71036
S113256703C601BD258F241B860BB71003C602BD06
S1132577258F240F8607B71003C603BD258F2403B1
S11325870D2001173325C8393686043DB610038458
S1132597F081F0272F81E026048600201481D026BD
S11325A7048601200C81B0260486022004860320B9
S11325B7001B16B61003B71003B6100384F081F09E
S11325C726F720010D3239183C3637C6045A18A6A7
S11325D700F71005B7100418085D26F133321838D0
S11325E7393637C6038620BD25F75A2AF8333239D8
S11325F7F71005B710043936860FB71007B610025F
S10A260784FEB71002323912
S113260E36373C183C18CE5F00C624A6008100263F
S113261E07860318A700201F81402607861518A7D2
S113262E00201481802607863818A700200981C04F
S113263E2605860018A7000818085A26CE1838381A
S113264E33323936373CC6248600A700085A26FA98
S113265E3833323936373C183C18CE5F00C624A6C0
S113266E0018A7000818085A26F5183838333239D6
S113267E3C183C3637860618CED90001180926FBBD
S110268E4A26F418CE0012333218383839B9
S9030000FC
