S0090000626174746C657A
S11320008E306BBD2015BD24FEBD207925F5BD2283
S1132010FE25F020F1BD25A67F30007F30017F3002
S1132020037F30067F30077F30047F3005BD259065
S1132030BD221518CE306CC62418A60084C08A00B0
S113204018A70018085A26F118CE3090C62418A6EE
S11320500084C08A0018A70018085A26F118CE5F19
S113206000C624860018A70018085A26F68601B769
S11320703002CE4048BD24A93936373C183C810F84
S1132080261ABD248F253BB630028B30C603BD25EE
S11320909F7F30007F30017F300320258103260598
S11320A0BD2333201C81072605BD23332013F630BE
S11320B003C101270C810B2605BD20C82003BD22C6
S11320C08F0C18383833323936373C183CB6300266
S11320D081012705CE306C2003CE30903CB6300011
S11320E0C60A10C6063D3AF630015A3AA600843FA5
S11320F081002663A60084C027548140273B81C009
S11321002707BD21A124272030F63002C101271062
S11321107C3007B630078103271AA60084C0200E3E
S11321207C3006B630068103270AA60084C08A3CA8
S1132130A7002023BD217120048A30A700B63002F5
S1132140810127057C3005200E7C300420098A0398
S1132150A7008601B7300386205FBD259F5CBD259F
S11321609F7F30007F300138BD25F918383833326D
S11321703936373C183CF63002C1012705CE306CA5
S11321802003CE3090C603A60084C081C026098AED
S113219030A7005AC10027030820EC18383833321E
S11321A03936373C183C3CB63000F630015CBD2271
S11321B0DD250708A60081BC2749383CB63000F667
S11321C030015ABD22DD250709A60081BC27343819
S11321D03CB630004AF63001BD22DD250B8F83006A
S11321E0068FA60081BC271B383CB630004CF63065
S11321F001BD22DD2517C6063AA60081BC27043896
S11322000C200C84C08A30A700380D2002380C182A
S10822103838333239B7
S11330B447414E41444F5220504C415945522031CE
S11330C40047414E41444F5220504C4159455220EF
S10530D43200C4
S113306C0000000000000000000000000000000050
S113307C0000000000000000000000000000000040
S107308C0000C0007C
S1133090000000004000C00000000000C00000402C
S11330A00080C0000000008000000000000080805C
S10730B000000040D8
S11322158601B73002CE306CBD25B6BD24FEC6C0DE
S1132225BD223628F62509CE306CBD25B6BD24FE63
S11322353936373C183C810F26040B0D20198103D0
S11322450A271381070A270E810B2606BD22620B76
S11322552004BD228F0A0C18383833323936373CFE
S1132265183CB6300281012705CE30902003CE30CC
S11322756C37B63000C60A10C6063D3AF630015A28
S11322853A33E70018383833323936373C183C814D
S1132295062221F63000263A81022208C60A1BB717
S11322A530002006C6091BB73000C6371BC601BD62
S11322B5259F201EF630012619810A2208C607101B
S11322C5B730012006C60810B73001C6301B5FBD04
S11322D5259F18383833323936373C183C810A2B58
S11322E50E810F220AC1012B06C106220220030D0D
S11322F520010C18383833323936373C183CB6309F
S1132305048106270AB630058106270B0C2019CE51
S113231530B4BD24A92006CE30C5BD24A9BD23955E
S11323250DBD24FE810F26F9183838333239363776
S11323353C183CF63002C1012613F63003C10127CF
S1132345068103271B204381072725203DF63003FB
S1132355C101270681072718203081032702202A77
S11323658601B73002CE4048BD24A9CE3090200E58
S11323758602B73002CE4057BD24A9CE306CBD25A8
S1132385F97F30007F30017F300318383833323914
S113239536373C183CB6300481062608CE4000FF8B
S11323A530DA2006CE4024FF30DA7F30D67F30D7AE
S11323B586044AB730D9C6035AF730D8FE30DAB6A0
S11323C530D9C6063D3AF630D83ABD245F7C30D6BE
S11323D5B630D6B730D77A30D9FE30DAB630D9C66A
S11323E5063D3AF630D83ABD245F7A30D726E7B6AB
S11323F530D6B730D77C30D8FE30DAB630D9C606F9
S11324053D3AF630D83ABD245F7A30D726E77C309A
S1132415D6B630D6B730D77C30D9FE30DAB630D917
S1132425C6063D3AF630D83ABD245F25277A30D71B
S113243526E5B630D6B730D77A30D8FE30DAB6309E
S1132445D9C6063D3AF630D83ABD245F7A30D72648
S1132455E77E23D218383833323936373C183C8670
S113246504BD261518CE5F00B630D9C6063D183A08
S1132475F630D8183AA60018A700188C5F2326034F
S10D24850D20010C183838333239E9
S11340003131313F3F3A313F313F3A3A313F313F2D
S11340103F3A3131313F3F3A313F3F3F3F3A313F01
S11340203F3F3F3A3C3C3C3A3A3A3C3F3C3A3F3AC9
S11340303C3F3C3F3F3A3C3C3C3F3A3F3C3F3F3AAD
S11340403F3F3C3F3F3A3A3A5455524E4F20504C32
S1134050415945522031005455524E4F20504C4145
S113406059455220320050524553494F4E45204E37
S1134070554556414D454E544520504152412043EB
S10C40804F4E4649524D415200D5
S1045EFF009E
S113248F36373C183CCE4066BD24A9BD24FE810FCF
S113249F0C26010D18383833323936373C183C3C8A
S11324AF18388F8300038F8604BD2615183CBD246E
S11324BFD8183008CDAC0018382BECA600810027B3
S11324CF0220E418383833323936373C183C183088
S11324DFBD2590C603CDAC082B09A60081002709A2
S11324EFBD259F085A2B0220EC1838383332393760
S11324FF860EB71003C600BD25372427860DB710E7
S113250F03C601BD2537241B860BB71003C602BDB6
S113251F2537240F8607B71003C603BD25372403B9
S113252F0D2001173325C8393686043DB6100384B0
S113253FF081F0272F81E026048600201481D02615
S113254F048601200C81B026048602200486032011
S113255F001B16B61003B71003B6100384F081F0F6
S113256F26F720010D3239183C3637C6045A18A6FF
S113257F00F71005B7100418085D26F13332183828
S113258F393637C6038620BD259F5A2AF833323988
S113259FF71005B710043936860FB71007B61002B7
S10A25AF84FEB7100232396B
S11325B636373C183C18CE5F00C624A60081002698
S11325C607860318A700201F81402607861518A72B
S11325D600201481802607863818A700200981C0A8
S11325E62605860018A7000818085A26CE18383873
S11325F633323936373C183C18CE5F00C624A60061
S113260618A7000818085A26F51838383332393C02
S1132616183C3637860618CED90001180926FB4A17
S10F262626F418CE00123332183838396C
S9030000FC
